:020000040800F2
:10000000980D0020451C0008F9160008FB16000892
:10001000FF1600080317000807170008000000007B
:100020000000000000000000000000000B170008A6
:100030000D170008000000000F1700081117000836
:100040005F1C00085F1C00085F1C00085F1C0008A4
:100050005F1C00085F1C00085F1C00085F1C000894
:100060005F1C00085F1C00085F1C00085F1C000884
:100070005F1C00085F1C00085F1C00085F1C000874
:100080005F1C00085F1C00085F1C00085F1C000864
:100090005F1C00085F1C00085F1C000813170008A5
:1000A0005F1C00085F1C00085F1C00085F1C000844
:1000B0005F1C00082B1A00085F1C00085F1C00086A
:1000C0005F1C00085F1C00085F1C00085F1C000824
:1000D0005F1C00085F1C00085F1C00085F1C000814
:1000E000E31800085F1C00085F1C00085F1C000884
:1000F0005F1C00085F1C00085F1C00085F1C0008F4
:100100005F1C00085F1C00085F1C00085F1C0008E3
:100110005F1C00085F1C00085F1C00085F1C0008D3
:100120005F1C00085F1C00085F1C00085F1C0008C3
:1001300000F002F800F05AF80AA090E8000C82449F
:100140008344AAF10107DA4501D100F04FF8AFF27C
:10015000090EBAE80F0013F0010F18BFFB1A43F0A5
:10016000010318475C4F00007C4F00000A444FF029
:10017000000C10F8013B13F0070408BF10F8014B06
:100180001D1108BF10F8015B641E05D010F8016B4B
:10019000641E01F8016BF9D113F0080F1EBF10F8AF
:1001A000014BAD1C0C1B09D16D1E58BF01F801CBD2
:1001B000FAD505E014F8016B01F8016B6D1EF9D555
:1001C0009142D6D37047000000230024002500266A
:1001D000103A28BF78C1FBD8520728BF30C148BFAA
:1001E0000B6070471FB51FBD10B510BD04F0DEFBDE
:1001F0001146FFF7F7FF00F08CFD04F0FCFB03B4A1
:10020000FFF7F2FF03BC04F003FC000010B5FEA2F0
:100210000021084603F026FDFDA20421002003F082
:1002200021FDFEA20021012003F01CFDFDA20421FE
:10023000012003F017FDFDA20021022003F012FDB2
:10024000FCA20421022003F00DFDFCA200210320EA
:1002500003F008FDFBA20721032003F003FD10BDFE
:10026000F8B504460D461646F74800680090632C22
:1002700026DD642094FBF0F00A2190FBF1F201FBF3
:1002800012009DF800100844C0B28DF800000A204A
:1002900094FBF0F00A2190FBF1F201FB12009DF8B3
:1002A00001100844C0B28DF801000A2094FBF0F15F
:1002B00000FB11409DF802100844C0B28DF8020006
:1002C000092C1DDD642C1BDA0A2094FBF0F00A21B6
:1002D00090FBF1F201FB12009DF800100844C0B23F
:1002E0008DF800000A2094FBF0F100FB11409DF80E
:1002F00001100844C0B28DF8010020208DF80200E2
:100300000A2C0FDA0A2094FBF0F100FB11409DF853
:1003100000100844C0B28DF8000020208DF80100C4
:100320008DF802006A463146284603F09BFC0A20FD
:1003300003F0FAFBF8BD2DE9FE4F04460F464FF0DF
:10034000000A00200290834680468146019000907A
:100350000026BE490860BE490860BE490860FF200B
:1003600094FBF0F100FB1140BB490870FF2094FBA7
:10037000F0F048700846877004E0B8A2022100201F
:1003800003F070FC04F055F90028F6D1B4A2022164
:1003900003F068FC53E0BBF1000F1ED104F01BFA20
:1003A000AD4804F09FF90546202D0AD1ACA20621E4
:1003B000002003F057FC4FF0010B4FF00008012024
:1003C000019008F1010000F0FF08B8F1050F2FD1EE
:1003D0004FF0010B4FF000082AE004F0D3F9A148D8
:1003E00004F0B3F90646CEB9C6B900209D4908729B
:1003F0009BA2072103F036FC9A490978994A527862
:10040000C2EB0222114488B204220221FFF728FF26
:100410004FF0000BD94601200090012609F10100A0
:1004200000F0FF09B9F1050F02D14FF0000BD946DA
:10043000022003F079FB0AF1010000F0FF0A002E10
:10044000A9D0BDE8FE8F10B587A20021084603F0B1
:1004500009FC87A20421002003F004FC10BD7CB538
:1004600004460D4616467849091D03C9CDE9000129
:10047000B4F57A7F35DB4FF47A7094FBF0F00A2103
:1004800090FBF1F201FB12009DF800100844C0B28D
:100490008DF80000642094FBF0F00A2190FBF1F24B
:1004A00001FB12009DF801100844C0B28DF8010054
:1004B0000A2094FBF0F00A2190FBF1F201FB1200FC
:1004C0009DF802100844C0B28DF802000A2094FB87
:1004D000F0F100FB11409DF803100844C0B28DF804
:1004E0000300632C2CDDB4F57A7F29DA642094FBB9
:1004F000F0F00A2190FBF1F201FB12009DF80010D0
:100500000844C0B28DF800000A2094FBF0F00A21E4
:1005100090FBF1F201FB12009DF801100844C0B2FB
:100520008DF801000A2094FBF0F100FB11409DF8CA
:1005300002100844C0B28DF8020020208DF803009C
:10054000092C1FDD642C1DDA0A2094FBF0F00A212F
:1005500090FBF1F201FB12009DF800100844C0B2BC
:100560008DF800000A2094FBF0F100FB11409DF88B
:1005700001100844C0B28DF8010020208DF802005F
:100580008DF803000A2C11DA0A2094FBF0F100FB2D
:1005900011409DF800100844C0B28DF800002020E2
:1005A0008DF801008DF802008DF803006A4631468F
:1005B000284603F057FB0A2003F0B6FA7CBD2DE96C
:1005C000FC4104460E46174600251F49103103C959
:1005D000CDE90001002C01DA64420125632C68DDBD
:1005E00020208DF80000642094FBF0F00A2190FB9D
:1005F000F1F201FB12009DF801100844C0B28DF821
:1006000001000A2038E00000312045585600000063
:100610003220536F6C56616C00000000332053652C
:10062000724D7400342050574D0000003520414475
:100630004300000036204F746865720053656C6596
:1006400063743A0020250000A05000080004002038
:100650000404002008040020120700204E47000078
:100660004F4B00001B0700204E52463A000000008E
:10067000434F4E3A0000000094FBF0F00A2190FB3B
:10068000F1F201FB12009DF802100844C0B28DF88F
:1006900002000A2094FBF0F100FB11409DF80310CA
:1006A0000844C0B28DF80300012D02D12D208DF831
:1006B0000000092C24DD642C22DA20208DF80000B3
:1006C0008DF801000A2094FBF0F00A2190FBF1F272
:1006D00001FB12009DF802100844C0B28DF8020020
:1006E0000A2094FBF0F100FB11409DF80310084430
:1006F000C0B28DF80300012D02D12D208DF801002C
:100700000A2C16DA20208DF800008DF801008DF8F3
:1007100002000A2094FBF0F100FB11409DF8031049
:100720000844C0B28DF80300012D02D12D208DF8B0
:1007300002006A463946304603F094FA0A2003F074
:10074000F3F9BDE8FC8170B50026072301221146AC
:10075000F74801F0D6FE03F0C8FB04461BE0F5485D
:100760000088A04201DA002516E0F248B0F818012E
:10077000A04201DB8C250FE0EE4830F81600A042C5
:1007800007DBEC49701C31F81000A04201DA354655
:1007900002E0701CC6B2E2E700BFA5F12800022209
:1007A0000121FFF70CFF022203212046FFF757FE2D
:1007B00070BD2DE9FE4F4FF0000A072301220021F2
:1007C000DB4801F09EFE03F090FB02900522002121
:1007D0000298FFF744FE029804F0FCF90746D64A57
:1007E000D64B04F00BFA0546D54AD64B04F004FB71
:1007F000CDE9000104F014F98346584604F0E6FB05
:1008000085B2032201212846FFF729FE029804F051
:10081000E1F9CD4ACD4BCDE9000104F0EFF90546F1
:10082000CB4ACC4B04F0E8FA074604F0F9F88346CB
:10083000584604F0CBFB85B2032202212846FFF77D
:100840000EFE072301221146B94801F05AFE03F0BB
:100850004CFB044620E0C0480088A04202DA4FF07A
:1008600000091AE0BC48B0F86801A04202DB4FF072
:10087000B40912E0B84830F81A00A04208DBB649C3
:100880000AF1010031F81000A04201DAD14604E07B
:100890000AF1010000F0FF0ADDE700BFA9F128001E
:1008A00002220321FFF78BFE062203212046FFF7D9
:1008B000D6FDBDE8FE8F70B5044607230122032153
:1008C0009B4801F01EFE03F010FB0646C01706EB26
:1008D0009070851041E0072301220321944801F024
:1008E00010FE03F002FB0646C01706EB9070851061
:1008F000042202212846FFF7B2FDA54217DA4FF481
:100900008051964801F0CDFA4FF40051934801F020
:10091000C6FA281B10F1230F1FDA281B10F12D0F28
:100920001BDD4FF440518D4801F0BBFA1CE04FF441
:1009300000518A4801F0B5FA4FF48051874801F020
:10094000AEFA281B2D2808DA281B232805DD4FF4D2
:100950004051824801F0A5FA06E0281B2828BADA9F
:10096000281B10F1280FB6DD00BF4FF4967003F07E
:10097000DBF80723012203216D4801F0C2FD03F0DB
:10098000B4FA0646C01706EB907085104BE00723BB
:1009900001220321664801F0B4FD03F0A6FA0646E1
:1009A000C01706EB90708510042202212846FFF73D
:1009B00056FD281B022809DA281B10F1020F05DD5D
:1009C0004FF44051654801F06CFA70BDA54215DA4C
:1009D0004FF48051614801F064FA4FF400515F48D0
:1009E00001F05DFA0A2003F09FF84FF440515B4894
:1009F00001F057FAC82003F097F814E04FF40051C3
:100A0000564801F04EFA4FF48051544801F047FA2D
:100A10000A2003F089F84FF44051504801F041FAA0
:100A2000C82003F081F8281B282803DA281B10F1BE
:100A3000280FACDC00BFC8E710B5044604B910BDF0
:100A4000A1E01021464801F02AFA4FF4E061444841
:100A500001F027FA142003F067F8601E84B204B98D
:100A600092E04FF482613E4801F019FA4FF4407170
:100A70003B4801F016FA142003F056F8601E84B2C9
:100A800004B981E04FF48061354801F008FA4FF471
:100A90004471334801F005FA142003F045F8601E54
:100AA00084B204B970E04FF4C0612D4801F0F7F949
:100AB0004FF488712A4801F0F4F9142003F034F857
:100AC000601E84B204B95FE04FF40071244801F065
:100AD000E6F94FF4A261224801F0E3F9142003F093
:100AE00023F8601E84B204B94EE04FF440711C48F4
:100AF00001F0D5F94FF48261194801F0D2F91420C0
:100B000003F012F8601E84B204B93DE04FF4807126
:100B1000134801F0C4F94FF4C261114801F0C1F962
:100B2000142003F001F8601E84B2DCB92CE0000050
:100B3000002401407A0500206688635DDC46F03FB2
:100B40006DE7FBA9F1FE6C40E17A14AE47E1D23FBC
:100B50000AD7A3703D2A4E4010040020000C01402B
:100B6000000801404FF48871FE4801F098F94FF4F5
:100B7000C061FC4801F095F9142002F0D5FF601E19
:100B800084B204B900E05CE700BF00BF57E710B5CE
:100B9000044604B910BD86E01021F24801F07FF947
:100BA0004FF4E061EF4801F07CF9142002F0BCFF43
:100BB000601E84B204B977E04FF48871E94801F00F
:100BC0006EF94FF4C061E74801F06BF9142002F0B0
:100BD000ABFF601E84B204B966E04FF48071E14857
:100BE00001F05DF94FF4C261DE4801F05AF91420BA
:100BF00002F09AFF601E84B204B955E04FF44071D0
:100C0000D84801F04CF94FF48261D64801F049F917
:100C1000142002F089FF601E84B204B944E04FF44E
:100C20000071D04801F03BF94FF4A261CD4801F0CA
:100C300038F9142002F078FF601E84B204B933E062
:100C40004FF4C061C74801F02AF94FF48871C548D4
:100C500001F027F9142002F067FF601E84B204B986
:100C600022E04FF48061BF4801F019F94FF444715C
:100C7000BC4801F016F9142002F056FF601E84B241
:100C800004B911E04FF48261B64801F008F94FF45D
:100C90004071B44801F005F9142002F045FF601ED0
:100CA00084B204B900E077E700BF00BF72E770B517
:100CB00003460C46002129E01D88A54201DD0024E1
:100CC00025E0551E33F81550A54201DC64201EE0D6
:100CD00033F81150A54218DC4D1C33F81550A542CD
:100CE00013DD4D1C33F8155033F81160AD1B33F88C
:100CF0001160A61B06EB8606760096FBF5F501EB68
:100D0000810605EB4605E8B201E0491CD4E700BFC7
:100D100070BD94B04FF0000A00BF0020139000BFD8
:100D200012903C2102A803F017FE0126B04600BF36
:100D300000BF00BF00240025A146002703F0ECF807
:100D400003F08EF803F056F802F06CFF02F008FF93
:100D500003F0FEFB03F0C8FDF103834801F09FF8A8
:100D600003F03CF803F03AFA642002F0DDFE03F0F1
:100D700035F87E4802F0FBFF4FF47A7002F0D4FEA3
:100D80004FF47A7002F0D0FE4FF47A7002F0CCFE8D
:100D900003F024F876A20021012002F063FF79A27B
:100DA0000121032002F05EFF4FF47A7002F0BCFED6
:100DB0004FF47A7002F0B8FE4FF47A7002F0B4FE8D
:100DC00003F00CF8FFF722FA002072490860FDE3F7
:100DD000072301220221704801F093FB03F085F8FC
:100DE0001190042203213046FFF73AFA0B226B4898
:100DF0001199FFF75CFF02AA139922F811001398CA
:100E0000401CC0B2139013981E2801D100201390EB
:100E10000020129082460AE002A830F81A101298B8
:100E2000084480B212900AF1010000F0FF0ABAF102
:100E30001E0FF1DB5748006801280CD11E211298C3
:100E400090FBF1F080B2062203210190FFF708FA2F
:100E50000020504908605248007800F0010080B13D
:100E6000701C86B2062E00DD012600240422032118
:100E70003046FFF7F5F94A48007800F0FE0048498F
:100E800008704748007800F0020078B1701E86B202
:100E9000012E00DA0626042203213046FFF7E0F98E
:100EA0003F48007800F0FD003D4908703C4800785C
:100EB00000F00800002853D002F090FF3848007876
:100EC00000F0F70036490870072E4AD2DFE806F036
:100ED0004904E7F0EFEEED0032A20021084602F0EF
:100EE000C1FE102003F0F6F881460FFA89F40022C3
:100EF00001214846FFF7B4F9C9E02948407800F0DD
:100F0000020028B302F06AFF2AA20021084602F07C
:100F1000A9FE40F23F20FFF78FFD4FF4E261114838
:100F200000F0BFFF1E48407800F0FD001C494870EB
:100F30000021102003F026F90024A14620460022BB
:100F40000121FFF78DF917A20021084602F08AFE61
:100F50001348007800F00100A0B3601C04B232E036
:100F600081E3DAE2000801400010014000000020A7
:100F7000BBB6D3ADCAB9D3C3B5F7CAD4D6FACAD6AD
:100F80000000000020506F77657220627920584C75
:100F9000616200000C04002000240140940600203F
:100FA00009070020C7EBCAE4C8EBB2BDCAFDA3BA6B
:100FB00000000000D5FDD4DAB8B4CEBB2E2E2E2E04
:100FC0000000000017E0B4F5F07F00DD0024A0B2BF
:100FD00000220121FFF744F9282002F0A5FD4FF47B
:100FE0008071FE4800F041FF28B1FD48007800F014
:100FF000FE00FB490870FA48007800F00200C8B112
:10100000601E04B2002C01DA4FF4F074A0B200228A
:101010000121FFF725F9282002F086FD4FF4007129
:10102000EE4800F022FF28B1ED48007800F0FD0006
:10103000EB490870EA48007800F0080038B3E9A2EC
:101040000021022002F00EFE4C4505DDA4EB090153
:1010500088B2FFF79CFD04E0A9EB040188B2FFF71A
:10106000EBFC4FF4E261E24800F01BFFE1A200213B
:10107000022002F0F7FDDA48007800F0F700D849C6
:1010800008701FFA84F9A1B2102003F07BF8D4484D
:10109000007800F0040000283FF42FAFE2E2D8A26D
:1010A0000021084602F0DEFD2DE037E21DE1C6E03A
:1010B00030E0CB48007800F0010078B1D2A20021E6
:1010C000012002F0CFFD4FF40041D14800F0E9FECD
:1010D000C348007800F0FE00C1490870C04800789D
:1010E00000F0020078B1CBA20021012002F0BAFD8D
:1010F0004FF40041C64800F0D2FEB948007800F035
:10110000FD00B7490870B648007800F004000028D8
:10111000CFD0A7E2C1A20021084602F0A3FDC3A2DE
:101120000021012002F09EFDC2A20021022002F057
:1011300099FD122002F0CEFF05B2A8B204220121CF
:10114000FFF78DF974E0A648007800F00100D0B1F7
:10115000681C05B240F2CA30854200DD3225A8B2D3
:1011600004220121FFF77BF9192002F0DDFC4FF486
:1011700080719A4800F079FE28B19948007800F013
:10118000FE00974908709648007800F00200C8B148
:10119000681E05B2322D01DA40F2CA35A8B2042227
:1011A0000121FFF75CF9192002F0BEFC4FF4007139
:1011B0008A4800F05AFE28B18948007800F0FD0006
:1011C000874908708648007800F00800B0B185A211
:1011D0000021032002F046FDA8B2FFF76CFB85A2B8
:1011E0000021032002F03EFD7D48007800F0F7006A
:1011F0007B490870A9B2122002F0C4FF8F48006832
:10120000012815D10723012203218D4801F079F926
:1012100002F06BFEC117019000EB91704FEAA00B3A
:10122000042202215846FFF71AF90020834908607A
:101230006B48007800F00400002884D012E281A2FC
:101240000021084602F00EFD03F000FB46E0644872
:10125000007800F00100C0B1781C07B2642F00DDF7
:101260000027B8B200220121FEF7FAFF322002F077
:101270005BFC4FF48071594800F0F7FD28B15848E5
:10128000007800F0FE00564908705548007800F0DC
:101290000200C0B1781E07B2002F00DA6427B8B28E
:1012A00000220121FEF7DCFF322002F03DFC4FF46A
:1012B00000714A4800F0D9FD28B14948007800F093
:1012C000FD0047490870C7EB071000EB40004FF6E0
:1012D000FF7202EA40015F4802F0C6FB4048007816
:1012E00000F004000028B2D0BCE10FE15AA20021B6
:1012F000084602F0B7FC5BA20021012002F0B2FC1C
:10130000AFF6C8420021022002F0ACFC344800785D
:1013100000F0010098B108F101001FFA80F8B8F15F
:10132000020F01DD4FF00108042202214046FEF7C2
:1013300097FF2B48007800F0FE00294908702848E4
:10134000007800F0020098B1A8F101001FFA80F8BF
:10135000B8F1010F01DA4FF00208042202214046E1
:10136000FEF77EFF1E48007800F0FD001C49087063
:101370001B48007800F0080000282DD002F02EFD58
:101380001748007800F0F70015490870B8F1010F10
:1013900003D0B8F1020F20D194E037A20021084613
:1013A00002F060FC36A20321002002F05BFC35A2B3
:1013B0000021012002F056FC34A20621012002F097
:1013C00051FC33A20021022002F04CFC2FA2062186
:1013D000022002F047FC5FE098E08EE0000C014044
:1013E00009070020D5FDD4DAD4CBD0D0000000000E
:1013F00000080140D6B4D0D0CDEAB1CF0000000043
:10140000B5E7B4C5B7A70000CEFCBACF0000000016
:1014100000100140B6CFBFAA00000000C7EBCAE42D
:10142000C8EBC4BFB1EA4144D6B50000C4BFB1EABD
:10143000D6B53A00B5B1C7B0D6B53A000C04002015
:1014400000240140C7EBCAE4C8EBD5BCBFD5B1C886
:1014500050574D000004004031205054B4ABB8D078
:10146000C6F700003220CDA8B5C0CEC2B6C8B4AB16
:10147000B8D0C6F700000000D1B9C1A60000000036
:1014800041443A00505433353A0000004B5061005B
:10149000505431323A0000008CA20021032002F0A7
:1014A000E1FB08E08B480068012804D1FFF781F9CF
:1014B0000020884908608848007800F0040000286F
:1014C000F0D01AE085A20021084602F0CBFB86A2EC
:1014D0000021022002F0C6FB08E07E4800680128D7
:1014E00004D1FFF730F900207A4908607A48007883
:1014F00000F004000028F0D000BF00BF02F06EFC36
:101500007548007800F0FB00734908707248007855
:1015100000F0040000283FF4E9AEA3E09AE0FEF7F3
:1015200092FFAFF280520021012002F09BFB1020BD
:1015300002F0D0FD81460FFA89F4002202214846CC
:10154000FEF78EFE7FE06448407800F0020008B3AA
:10155000AFF2A0520021032002F084FB022140F2EE
:101560000D20FEF7E8FE5C48407800F0FD005A4987
:1015700048700021102002F005FE0024A1462046FC
:1015800000220221FEF76CFEAFF2E852002101209A
:1015900002F068FB5048007800F00100D8B1601CF0
:1015A00004B2B4F5F07F00DD0024A0B200220221D5
:1015B000FEF756FE282002F0B7FA4FF480714C482F
:1015C00000F053FC38B14448007800E05AE000F0E5
:1015D000FE00414908704048007800F00200C8B1A0
:1015E000601E04B2002C01DA4FF4F074A0B20022A5
:1015F0000221FEF735FE282002F096FA4FF4007122
:101600003B4800F032FC28B13348007800F0FD0080
:10161000314908703048007800F0080098B1AFF206
:101620003C220021032002F01DFBA0B20121FEF7A5
:1016300082FE2948007800F0F70027490870A1B21F
:10164000102002F09FFD2448007800F004000028DC
:101650003FF479AF2048007800F0040000283FF400
:101660005EAF00BF00BF1C48007800F0040048B126
:1016700002F0B4FBFEF7CAFD1748007800F0FB004B
:1016800015490870FFF7A4BB02880B8803800A8005
:101690007047F8B506460C46154616480068009097
:1016A0000A2096FBF0F100FB11609DF80010084441
:1016B000C0B28DF800006A462946204602F0D2FAF0
:1016C0000A2002F031FAF8BD70470000CEC2B6C859
:1016D000000000000C04002009070020CDA8B5C0C0
:1016E000CEC2B6C8A3BA00004144D6B5A3BA000022
:1016F000000C0140AC500008704700BFFEE700BF7F
:10170000FEE700BFFEE700BFFEE770477047704787
:10171000704710B5202001F0D1F801284AD12020CF
:1017200001F0DDF80A2002F0FFF92021C34800F0A3
:101730009CFB00283ED10A2002F0F6F9C048006860
:10174000401CBF49086008460068012808D10320F2
:10175000BC490860BC48407840F00400BA49487071
:10176000B7480068022808D10420B6490860B64886
:10177000407840F00800B4494870B1480068032838
:1017800008D10120AF490860AF48407840F00C0014
:10179000AD494870AA48006804280BD10220A94925
:1017A00008600020A6490860A748407800F0F300D0
:1017B000A5494870402001F081F801282AD1402035
:1017C00001F08DF80A2002F0AFF940219B4800F0AB
:1017D0004CFBF8B90A2002F0A7F99C48006870B9E0
:1017E00001209B49086099480068401C974908609F
:1017F0009548407840F00100934948700AE0002085
:1018000093490860914908608F48407800F0FE00D5
:101810008D494870802001F051F801282AD180209C
:1018200001F05DF80A2002F07FF98021834800F082
:101830001CFBF8B90A2002F077F98648006870B9F5
:1018400001208549086083480068401C8149086080
:101850007D48407840F002007B4948700AE0002053
:101860007D4908607B4908607748407800F0FD00BA
:10187000754948704FF4807001F020F8012814D1A8
:10188000000201F02CF80A2002F04EF94FF48071AA
:101890006A4800F0EAFA40B90A2002F045F96A48BD
:1018A000007840F00100684908704FF4007001F0C2
:1018B00005F8012814D1400201F011F80A2002F0C5
:1018C00033F94FF400715D4800F0CFFA40B90A20B7
:1018D00002F02AF95C48007840F002005A4908708A
:1018E00010BD10B54FF4806000F0E8FF012814D15E
:1018F000800200F0F4FF0A2002F016F94FF4806134
:101900004E4800F0B2FA40B90A2002F00DF94E48F4
:10191000007840F004004C4908704FF4006000F07B
:10192000CDFF012814D1C00200F0D9FF0A2002F037
:10193000FBF84FF40061414800F097FA40B90A20E3
:1019400002F0F2F84048007840F008003E49087084
:101950004FF4805000F0B2FF012814D1000300F0D2
:10196000BEFF0A2002F0E0F84FF48051334800F047
:101970007CFA40B90A2002F0D7F83348007840F0EA
:101980001000314908704FF4005000F097FF012813
:1019900014D1400300F0A3FF0A2002F0C5F84FF471
:1019A0000051264800F061FA40B90A2002F0BCF864
:1019B0002548007840F02000234908704FF480400B
:1019C00000F07CFF012814D1800300F088FF0A207A
:1019D00002F0AAF84FF48041184800F046FA40B9E6
:1019E0000A2002F0A1F81848007840F0400016499B
:1019F00008704FF4004000F061FF012814D1C003CB
:101A000000F06DFF0A2002F08FF84FF400410B4800
:101A100000F02BFA40B90A2002F086F80A48007854
:101A200040F080000849087010BD10B501210B4836
:101A300002F05CF801200A49086010BD000C01406A
:101A4000B40600200804002009070020B00600208A
:101A500004040020AC060020000400200004004024
:101A60000C0400200CB50020019000906C48006828
:101A700040F480306A49086000BF6948006800F49B
:101A8000003000900198401C0190009818B901980E
:101A9000B0F5A06FF1D16248006800F4003010B1D9
:101AA0000120009001E0002000900098012843D11F
:101AB0005C48006840F010005A4908600846006819
:101AC00020F0030008600846006840F0020008604B
:101AD0005348406852494860084640684860084694
:101AE000406840F4806048600846406820F47C10FC
:101AF00048600846406840F4E810486008460068BE
:101B000040F08070086000BF4548006800F0007039
:101B10000028F9D04248406820F00300404948605E
:101B20000846406840F00200486000BF3C484068FA
:101B300000F00C000828F9D10CBD10B5FFF792FF9A
:101B400010BD10B53648006840F001003449086007
:101B500008464068344908403149486008460068F2
:101B6000324908402E4908600846006820F4802069
:101B700008600846406820F4FE0048604FF41F00EB
:101B80008860FFF7DAFF4FF000602949086010BD58
:101B900010B5002100200022214B5B6803F00C01EE
:101BA00021B1042906D0082928D107E0214B224C75
:101BB000236027E01F4B204C236023E0184B5B6819
:101BC00003F47010164B5B6803F48032022303EBBE
:101BD000904022B9194B4343174C23600DE0104B42
:101BE0005B6803F4003323B1144B4343124C23606E
:101BF00003E0104B4343104C236003E00D4B0E4CAD
:101C0000236000BF00BF064B5B68C3F303130C4C9B
:101C1000E15C094B1B68CB40074C236010BD000002
:101C200000100240002002400000FFF8FFFFF6FE17
:101C300008ED00E000127A00B806002000093D001F
:101C4000BC0600200948804709480047FEE7FEE738
:101C5000FEE7FEE7FEE7FEE7FEE7FEE7FEE7FEE75C
:101C600004480549054A064B70470000431B00081D
:101C70003101000898070020980D002098090020E5
:101C80009809002010B50446CC48844208D10121AF
:101C9000042000F02DFB0021042000F029FB46E089
:101CA000C748844208D10121082000F021FB00210F
:101CB000082000F01DFB3AE0C248844208D101210F
:101CC000102000F015FB0021102000F011FB2EE089
:101CD000BD48844208D10121202000F009FB0021E9
:101CE000202000F005FB22E0B848844208D1012101
:101CF000402000F0FDFA0021402000F0F9FA16E043
:101D0000B348844208D10121802000F0F1FA00217B
:101D1000802000F0EDFA0AE0AE48844207D10121AC
:101D2000801500F0E5FA0021A01500F0E1FA10BDE1
:101D300010B50121084600F0DBFA0021012000F077
:101D4000D7FA10BD2DE9F0410246002500260020FB
:101D500000230024002791F803C00CF00F0591F830
:101D600003C00CF0100CBCF1000F03D091F802C0BE
:101D70004CEA050591F800C0BCF1000F31D01468A1
:101D800000202BE04FF0010C0CFA00F3B1F800C07A
:101D90000CEA03069E4220D183004FF00F0C0CFA90
:101DA00003F7BC4305FA03FC4CEA040491F803C0B2
:101DB000BCF1280F06D14FF0010C0CFA00FCC2F860
:101DC00014C00AE091F803C0BCF1480F05D14FF0F0
:101DD000010C0CFA00FCC2F810C0401C0828D1D33A
:101DE0001460B1F800C0BCF1FF0F34DD546800206E
:101DF0002EE000F1080C4FF0010808FA0CF3B1F8DE
:101E000000C00CEA03069E4221D183004FF00F0C64
:101E10000CFA03F7BC4305FA03FC4CEA040491F8FE
:101E200003C0BCF1280F05D100F1080C08FA0CF82A
:101E3000C2F8148091F803C0BCF1480F07D100F13B
:101E4000080C4FF0010808FA0CF8C2F81080401C8A
:101E50000828CED35460BDE8F0814FF6FF710180B1
:101E6000022181700421C1707047024600209368EE
:101E70000B400BB1012000E000207047014688684C
:101E800080B2704702460020D3680B400BB101209E
:101E900000E0002070470146C86880B270470161C9
:101EA0007047416170470AB1016100E041617047CC
:101EB000C16070474FF480320A4382618161826160
:101EC00082698269704702460020434B18684FF6CA
:101ED0008073184040EA021008433F4B1860704777
:101EE0003E49C8617047F0B50A460023002400212E
:101EF000002500F00046B6F1004F02D1364EF169E0
:101F000001E0354E7168C0F3034583B200F440161A
:101F1000B6F5401F08D121F070612F4E766826F08B
:101F200070662D4F7E6012E000F48016B6F5801FBB
:101F300006D1032606FA05F4A14341F0706106E0DC
:101F4000460D360103FA06F6B14341F0706122B145
:101F5000460D360103FA06F6314300F00046B6F1AD
:101F6000004F02D11C4EF16101E01B4E7160F0BDCB
:101F700030B500228B071C0F0F2303FA04F2164B17
:101F800008338C1053F824309343134C08348D10CD
:101F900044F8253023468C1053F824308C07240F46
:101FA00000FA04F423430C4C08348D1044F8253017
:101FB00030BD0A49DC31086070470000000801406C
:101FC000000C0140001001400014014000180140C5
:101FD000001C0140002001400000014000002042A0
:101FE000DF48006840F00100DD49086008464068AD
:101FF000DC490840DA49486008460068DA49084088
:10200000D74908600846006820F480200860084628
:10201000406820F4FE0048604FF41F00886070475D
:10202000CF49096821F48031CD4A11601146096811
:1020300021F480211160B0F5803F03D0B0F5802FEE
:102040000ED106E0C649096841F48031C44A1160E6
:1020500007E0C349096841F4A021C14A116000E0CA
:1020600000BF00BF704710B50146002200230020CA
:102070004A11012A02D1BA4C236806E0022A02D191
:10208000B74C236A01E0B64C636A01F01F020124D9
:1020900094401C400CB1012000E0002010BD38B578
:1020A000002000900024002500BF3120FFF7DBFF57
:1020B00005460098401C00900098B0F5A06F01D034
:1020C000002DF2D03120FFF7CEFF08B1012400E04F
:1020D0000024204638BD01460020A14A106820F0A7
:1020E000F80040EAC10010607047A04908607047DE
:1020F000024600209A4B586820F47C1042EA010303
:102100001843974B586070479849086670470146D6
:102110000020934A506820F0030008435060704745
:102120008F48406800F00C007047014600208C4A40
:10213000506820F0F00008435060704701460020CE
:10214000874A506820F4E0600843506070470146B9
:102150000020834A506820F4605040EAC10050607B
:10216000704729B17E4A527A02437D4B5A7204E08D
:102170007B4A527A82437A4B5A7270477B49D831F4
:102180000860704701460020754A506820F44040BE
:102190000843506070470021714A20321170704A24
:1021A00082F82010012802D004280AD104E001217D
:1021B0006B4A2032117005E00521694A2032117006
:1021C00000E000BF00BF704769490860704764497C
:1021D000096A0143624A11627047654944390860DF
:1021E000704730B500210022002400235C4D6D684B
:1021F00005F00C0121B1042905D0082923D105E0FF
:102200005C4D056022E05B4D05601FE0544D6D683C
:1022100005F47012524D6D6805F48034022505EB0B
:1022200092421CB9544D554305600BE04C4D6D680E
:1022300005F400351DB1504D5543056002E04D4D8C
:102240005543056002E04B4D056000BF00BF444DA3
:102250006D6805F0F0010909484D6B5C0568DD40CB
:1022600045603F4D6D6805F4E061090A434D6B5CC4
:102270004568DD4085603A4D6D6805F46051C90AD6
:102280003E4D6B5C4568DD40C560354D6D6805F4BD
:102290004041890B3A4D6B5CC568B5FBF3F50561B0
:1022A00030BD29B12E4A526902432D4B5A6104E0D8
:1022B0002B4A526982432A4B5A61704729B1284AF6
:1022C00092690243264B9A6104E0254A926982434F
:1022D000234B9A61704729B1214AD2690243204BAE
:1022E000DA6104E01E4AD26982431D4BDA6170470D
:1022F00029B11B4AD2680243194BDA6004E0184A3C
:10230000D2688243164BDA60704729B1144A1269C9
:102310000243134B1A6104E0114A12698243104BC5
:102320001A61704712494039086070470F49C86404
:1023300070470B49C87170470948406A40F0807087
:1023400007494862704701460020054A92680A40E2
:102350000AB1012000E000207047014988727047EF
:10236000001002400000FFF8FFFFF6FE00004242AE
:102370008004424200127A0000093D00CC06002091
:10238000DC06002010B50446FA48844208D1012139
:102390004015FFF7ADFF00216015FFF7A9FF17E01B
:1023A000F548844208D101210015FFF7A1FF002163
:1023B0002015FFF79DFF0BE0F048844208D1012172
:1023C000C803FFF795FF00214FF40040FFF790FF8F
:1023D00010BD30B50246002000235068E84C204074
:1023E0000D790C6844EA0524204350609068E54C60
:1023F0002040D1E902542C434D7944EA450420435E
:102400009060D06A20F470000C7C641EE4B2234318
:1024100040EA0350D06230BD00210160017141717A
:102420008160C16001210174704721B1826842F06E
:102430000102826003E0826822F00102826070473C
:1024400021B1826842F48072826003E0826822F4E3
:1024500080728260704710B50023CBB21AB1446815
:102460001C43446002E044689C43446010BD8168A2
:1024700041F0080181607047014600208A6802F03F
:1024800008020AB1012000E000207047816841F095
:10249000040181607047014600208A6802F004024E
:1024A0000AB1012000E00020704721B1826842F4A7
:1024B000A002826003E0826822F4A002826070477A
:1024C000014600208A6802F480020AB1012000E07F
:1024D0000020704710B50A4600210023416821F40E
:1024E0006041531E41EA4331416010BD21B1426851
:1024F00042F40062426003E0426822F400624260FB
:102500007047F0B504460D4600200021092D11DD6D
:10251000E068A5F10A0606EB4607072606FA07F16A
:102520008843A5F10A0606EB460603FA06F10843BE
:10253000E0600CE0206905EB4507072606FA07F185
:10254000884305EB450603FA06F108432061072A94
:102550000FDA606B561E06EB86071F2606FA07F198
:102560008843561E06EB860605FA06F108436063AB
:1025700022E00D2A0FDA206BD61F06EB86071F26F6
:1025800006FA07F18843D61F06EB860605FA06F120
:102590000843206310E0E06AA2F10D0606EB86070F
:1025A0001F2606FA07F18843A2F10D0606EB860600
:1025B00005FA06F10843E062F0BD21B1826842F4F9
:1025C0008012826003E0826822F480128260704789
:1025D0000146C86C80B2704766484C30006870474E
:1025E00021B1426842F48062426003E0426822F412
:1025F00080624260704721B1426842F4805242607A
:1026000003E0426822F48052426070470A4600218B
:10261000816821F4E04111438160704721B18268F3
:1026200042F40042826003E0826822F40042826049
:10263000704721B1826842F40212826003E082682E
:1026400022F4021282607047014600208A6802F478
:1026500000120AB1012000E000207047F0B50446E6
:102660001546002000220026092911DDE068A1F1AD
:102670000A0707EB470C072707FA0CF29043A1F172
:102680000A0707EB470703FA07F21043E0600CE084
:10269000206901EB410C072707FA0CF2904301EB8C
:1026A000410703FA07F210432061A06BC0F3015603
:1026B000EF1C06F1010CA7EB0C0707EB870C1F279B
:1026C00007FA0CF29043EF1C06F1010CA7EB0C0784
:1026D00007EB870701FA07F21043A063F0BD10B5BE
:1026E0000A4600210023816B21F44011531E41EA68
:1026F0000351816310BD08B5002300930090009B37
:102700000B440093009B1A6008BD08B502460020E8
:102710000090009201F12800009B1844009000985E
:10272000006880B208BD0A4600214168164B194076
:102730001143416070474162826270470A4600213E
:10274000416821F01F0111434160704740B10949C0
:102750000831096841F40001064A0832116007E0B7
:1027600004490831096821F40001024A0832116065
:10277000704700000024014000280140003C014057
:10278000FFFEF0FFFDF7F1FFFFFD3FFF02460020D7
:1027900013680B400BB1012000E000207047CA43D2
:1027A0000260704770B502460020002300240B121F
:1027B0005568CEB205EA060415681D4015B10CB186
:1027C000012000E0002070BD00220A12D343036004
:1027D00070470000002044490860091D0860091D79
:1027E0000860091D086041483F491431086070477E
:1027F00000213D498279002A3AD00A4612680368CE
:102800009A430B461A600A1D126803689A430B1D0F
:102810001A60027911440A6803681A430A60324A4E
:102820000832126803689A432F4B08331A601A1D46
:10283000126803689A432C4B0C331A604279102AB1
:102840000ED11A1F126803681A43274B08331A6007
:102850001A1D126803681A43234B0C331A600DE0EB
:102860002149427911440A6803681A430A6005E065
:10287000027911440A6803689A430A60704700218C
:10288000016001710C21417100218171704716496D
:10289000103109680143144A103211607047014633
:1028A0000020114A143212680A400AB1012000E0E7
:1028B000002070470C491431086070470146002021
:1028C0000022094B1B6803EA0102074B14331B6803
:1028D0000B4013B10AB1012000E00020704702490B
:1028E000143108607047000000040140FFFF0F0032
:1028F00031490143314A1160704770B5002100230E
:102900000F22C47804B32D4C246804F4E064C4F5A9
:10291000E064210AC1F10403CA40447804FA03F1D7
:102920008478144021430901254C0678A155047888
:1029300004F01F050124AC4005786D11AD0005F1D0
:10294000E025C5F8004109E0047804F01F050124E2
:10295000AC401C4D0678761145F8264070BD1A4AE9
:102960000A400243154B1B1F1A60704739B1134AC6
:10297000121D12680243114B1B1D1A6006E00F4A1C
:10298000121D126882430D4B1B1D1A6070470428EC
:1029900008D14FF0E021096941F004014FF0E02235
:1029A000116107E04FF0E021096921F004014FF0C7
:1029B000E0221161704700000000FA050CED00E014
:1029C00000E400E080E100E080FFFF1F10B5044656
:1029D000BE48844208D101218014FFF789FC002100
:1029E000A014FFF785FC16E0B948844208D1012104
:1029F0000014FFF78AFC00212014FFF786FC0AE090
:102A0000B448844207D10121C013FFF77EFC0021A6
:102A1000E013FFF77AFC10BD10B50022028802F423
:102A200041520B884C8823438C882343CC88234312
:102A30000C8923434C8923438C892343CC8923432A
:102A40001A430280838B4FF2FF74234083830B8AE7
:102A5000038210BD2DE9F04F85B005460C464FF0BE
:102A6000000902274FF000084FF0010B0026B24684
:102A7000A88B4FF240010840A88302202884B5F8B3
:102A80001C90A068022801D100BF38E0A08810B9CE
:102A90004FF0010B01E04FF0020B8D48854200D151
:102AA00000E000BF6846FFF79CFBDDF800A0E0886F
:102AB000B0F5007F0AD14FEA1A2000EB80004000F9
:102AC000A168B0FBF1F0401D86B20BE04FEA4B105D
:102AD000BAFBF0F000EB80004000A168B0FBF1F021
:102AE000401D86B20A20B6FBF0F606F00108A6EB00
:102AF0000800C0F34F074FF6FF7000EA0828022FC6
:102B000001DBFF2F02DD02274FF00008E08840EADA
:102B1000080038432884A088A189084361880843B5
:102B20002188084340F4006040EA0909A5F81C9098
:102B300005B0BDE8F08F0021018041808180C18017
:102B4000018141818181C18107210182704700217A
:102B5000018041808180C1800221816000218181CA
:102B6000704721B1028842F04002028004E00288EE
:102B70004FF6BF731A400280704721B1828B42F436
:102B80008062828304E0828B4FF6FF331A40828397
:102B9000704730B5002400230C110125A540ABB2CD
:102BA0001AB185881D43858002E085889D43858014
:102BB00030BD1AB183880B43838002E083888B4346
:102BC00083807047818170470146888970474FF63E
:102BD000FF62914204D0028842F48072028004E0D5
:102BE00002884FF6FF631A400280704721B1828845
:102BF00042F00402828004E082884FF6FB731A40A0
:102C00008280704702884FF2FF731A400280028868
:102C10000A4302807047018841F480510180704767
:102C200021B1028842F40052028004E002884DF68D
:102C3000FF731A400280704702460020012901D02C
:102C4000108B00E0908A70470146088A7047B1F502
:102C5000804F04D1028842F48042028004E002885E
:102C60004BF6FF731A40028070470246002013891A
:102C70000B400BB1012000E000207047CA430281E5
:102C80007047F0B50246002000240023002501F023
:102C90000F070126BE40B4B20B1101269E40B3B20D
:102CA000968806EA03051689264016B10DB1012063
:102CB00000E00020F0BD10B5002201F00F04012358
:102CC000A3409AB2D343038110BD000000300140FD
:102CD00000380040003C004010B50446FE488442E5
:102CE00008D10121C014FFF703FB0021E014FFF716
:102CF000FFFAC4E0B4F1804F08D101210846FFF784
:102D000004FB00210120FFF700FBB8E0F3488442F8
:102D100008D101210220FFF7F8FA00210220FFF775
:102D2000F4FAACE0EE48844208D101210420FFF718
:102D3000ECFA00210420FFF7E8FAA0E0E948844219
:102D400008D101210820FFF7E0FA00210820FFF751
:102D5000DCFA94E0E448844208D101211020FFF716
:102D6000D4FA00211020FFF7D0FA88E0DF4884422F
:102D700008D101212020FFF7C8FA00212020FFF709
:102D8000C4FA7CE0DA48844208D101214014FFF7FC
:102D9000AFFA00216014FFF7ABFA70E0D548844227
:102DA00009D10121C804FFF7A3FA00214FF4002044
:102DB000FFF79EFA63E0D048844209D1012108055B
:102DC000FFF796FA00214FF48010FFF791FA56E0D2
:102DD000CA48844209D101214805FFF789FA002138
:102DE0004FF40010FFF784FA49E0C548844208D147
:102DF00001214020FFF789FA00214020FFF785FAE2
:102E00003DE0C048844208D101218020FFF77DFACF
:102E100000218020FFF779FA31E0BB48844208D1D5
:102E200001218015FFF771FA0021A015FFF76DFA57
:102E300025E0B648844209D101210804FFF758FA79
:102E400000214FF48030FFF753FA18E0B048844275
:102E500009D101214804FFF74BFA00214FF400305B
:102E6000FFF746FA0BE0AB48844208D10121880401
:102E7000FFF73EFA00214FF48020FFF739FA10BD2A
:102E800000220288944B98420ED0994B98420BD066
:102E9000B0F1804F08D0914B984205D0904B9842AA
:102EA00002D0904B984204D14FF68F731A404B8852
:102EB0001A438D4B984207D08C4B984204D04FF662
:102EC000FF431A40CB881A4302808B8883850B8886
:102ED0000385814B98420BD0854B984208D08B4B91
:102EE000984205D08A4B984202D08A4B984201D131
:102EF0000B7A038601238382704770B50024002279
:102F00000023058C4FF6FE7635400584028C8388BD
:102F1000048B4FF68F752C40B51E2C400D882C432A
:102F2000751E2A400D892A434D882A436A4DA842BE
:102F30000BD06F4DA84208D0744DA84205D0744DF7
:102F4000A84202D0734DA84213D14FF6F7752A401C
:102F50004D892A434FF6FB752A408D882A434FF648
:102F6000FF652B404FF6FF552B408D892B43CD89B4
:102F70002B4383800483CD888586028470BD70B521
:102F8000002400220023058C4FF6EF76354005849F
:102F9000028C8388048B48F6FF752C404FF6FF4562
:102FA0002C400D884FF6FF7606EA05252C434FF698
:102FB000DF752A400D8906EA05152A434D8806EA81
:102FC00005152A43444DA84202D0494DA8421DD1BF
:102FD0004FF67F752A404D894FF6FF7606EA0515B4
:102FE0002A434FF6BF752A408D8806EA05152A4305
:102FF0004FF6FF352B404FF2FF752B408D8906EAC7
:1030000085052B43CD8906EA85052B438380048300
:10301000CD880587028470BD70B50024002200238E
:10302000058C4FF6FF6635400584028C8388848BBF
:103030004FF68F752C404FF6FC752C400D882C43B5
:103040004FF6FF552A400D894FF6FF7606EA052513
:103050002A434D8806EA05252A431F4DA84202D07F
:10306000234DA8421DD14FF2FF752A404D894FF6DE
:10307000FF7606EA05252A434FF6FF352A408D885C
:1030800006EA05252A434EF6FF752B404DF6FF75DF
:103090002B408D8906EA05152B43CD8906EA0515D7
:1030A0002B4383808483CD888587028470BD70B56F
:1030B000002200230024058C4EF6FF76354005845F
:1030C000038C8488828B48F6FF752A404FF6FF45B3
:1030D0002A400D8820E00000002C01400004004040
:1030E00000080040000C00400010004000140040A8
:1030F00000340140004C01400050014000540140A8
:1031000000180040001C004000200040004001402A
:1031100000440140004801404FF6FF7606EA0525CD
:103120002A434DF6FF752B400D8906EA05352B43E2
:103130004D8806EA05352B43FA4DA84202D0FA4DD8
:10314000A84208D14BF6FF752C408D894FF6FF76CB
:1031500006EA85152C4384808283CD88A0F84050F0
:10316000038470BD828B4FF2FF331A408283828BBF
:103170004FF6FF7303EA01231A4382837047F0B5C9
:103180000C461546002200210026078C4EF6FF7CD7
:1031900007EA0C070784828B018C4FF6FF7707EA5A
:1031A000043640F6FF473A404FF6FF7707EA052717
:1031B0003A434FF6FF7707EA03373A43D94FB8420D
:1031C0000ED0D94FB8420BD0B0F1804F08D0D74FB6
:1031D000B84205D0D64FB84202D0D64FB84206D139
:1031E0004DF6FF77394046F48057394305E047F6FE
:1031F000FF57394044F48057394382830184F0BD3E
:10320000828B4FF6F3731A408283828B0A43828348
:103210007047F0B50C461546002200210026078CA9
:103220004FF6FF6C07EA0C070784828B018C4FF680
:10323000FF7707EA04264FF60C773A404FF6FF7700
:1032400007EA03172F433A43B64FB8420ED0B64FA2
:10325000B8420BD0B0F1804F08D0B44FB84205D07F
:10326000B34FB84202D0B34FB84206D14FF6FF5722
:10327000394046F48077394305E04FF2FF57394033
:1032800044F48077394382830184F0BD028B4FF28E
:10329000FF331A400283028B4FF6FF7303EA0123C8
:1032A0001A4302837047F0B50C46154600220021F0
:1032B0000026078C4FF6EF7C07EA0C070784028B89
:1032C000018C4FF6FF7707EA041640F6FF473A40B5
:1032D0004FF6FF7707EA03373A434FF6FF7707EADF
:1032E00005273A438F4FB8420ED08F4FB8420BD0CC
:1032F000B0F1804F08D08D4FB84205D08C4FB84206
:1033000002D08C4FB84206D14FF6DF77394046F0F5
:103310001007394305E04FF65F77394044F0100756
:10332000394302830184F0BD028B4FF6F3731A40D8
:103330000283028B0A4302837047F0B50C461546A0
:1033400000220021068C4FF6FE773E400684028B59
:10335000018C4FF60C7632407E1C06EA03162E4393
:103360003243704EB0420ED06F4EB0420BD0B0F12F
:10337000804F08D06D4EB04205D06D4EB04202D0A5
:103380006C4EB04206D14FF6FD76314044F0010656
:10339000314305E04FF6F576314044F00106314304
:1033A00002830184F0BD70B505460C465D48854238
:1033B0000ED05D4885420BD0B5F1804F08D05B48F8
:1033C000854205D05A48854202D05A48854200D1EC
:1033D00000E000BF208850B92389A2886188284670
:1033E000FFF7ABFFE1882846FFF79EFF25E0208826
:1033F00004280AD12389A28861882846FFF753FF51
:10340000E1882846FFF742FF17E0208808280AD104
:103410002389A28861882846FFF7FBFEE1882846B9
:10342000FFF7EEFE09E02389A28861882846FFF7AE
:10343000A6FEE1882846FFF795FE70BD2DE9F04114
:1034400005460C4600260127608808B9022600E0E0
:103450000026A088012801D1022700E0012720884A
:10346000A0B92389A28861882846FFF766FFE18812
:103470002846FFF759FF23893A4631462846FFF789
:1034800012FFE1882846FFF701FF13E02389A28895
:1034900061882846FFF707FFE1882846FFF7F6FE18
:1034A00023893A4631462846FFF747FFE1882846F8
:1034B000FFF73AFFBDE8F0810A884B881A438B88F2
:1034C0001A43CB881A430B891A434B891A438B89B9
:1034D0001A43A0F8442070474FF6FF718180002105
:1034E0000180C180418001727047002101804180CC
:1034F0008180C180018141818181C181704700212A
:1035000001804180012181800021C18001817047BB
:103510000021018041808180C180018141818181C0
:1035200070470000002C01400034014000040040BE
:1035300000080040000C004021B1028842F0010266
:10354000028004E002884FF6FE731A400280704742
:1035500031B1B0F8442042F40042A0F8442005E024
:10356000B0F84420C2F30E02A0F8442070471AB10C
:1035700083890B43838102E083898B438381704776
:103580008182704741EA0203A0F8483070471AB1BF
:1035900083890B43838102E083898B438381704756
:1035A00001894FF6F8721140018170470A460021E7
:1035B00001894FF68F73194011430181704730B56F
:1035C00004460D4629462046FFF7F0FF208940F0CB
:1035D0000700208130BD2DE9F04104460D46164616
:1035E0001F46602D06D13B46012231462046FFF79B
:1035F0005AFE05E03B46012231462046FFF79DFE7C
:1036000029462046FFF7D2FF208940F0070020819D
:10361000BDE8F08130B50C4600210189C9B24FF6F2
:10362000FF7505EA0325154325432943018130BD74
:103630002DE9F04105460E461746984600244346BC
:103640003A4631462846FFF7E5FF2C894FF6F870D9
:10365000044044F007044FF68F70044044F07004B7
:103660002C81BDE8F081F0B504460D4616461F4694
:103670003B46324629462046FFF7CCFF208940F4DE
:1036800080402081F0BD0185828270470A4600217A
:1036900001884FF68F731940114301807047F0B5D0
:1036A0000C4615461E460021002200230189028B8C
:1036B000038C4FF6F877394021434FF6FC473A40E8
:1036C00040F201173A434FF6DD773B404FF6FF7764
:1036D00007EA06172F433B43018102830384F0BDB1
:1036E0000A460021018B4FF68F7319401143018365
:1036F00070470A460021018B48F6FF7319404FF6C8
:10370000FF7303EA02231943018370470A4600212D
:10371000818B4FF68F7319401143818370470A469E
:103720000021818B48F6FF7319404FF6FF7303EABF
:10373000022319438183704721B1028842F080023D
:10374000028004E002884FF67F731A4002807047BF
:1037500021B1828842F00402828004E082884FF620
:10376000FB731A408280704721B1828842F00802C0
:10377000828004E082884FF6F7731A408280704797
:1037800021B1828842F00102828004E082884FF6F3
:10379000FE731A40828070470A460021018B4FF663
:1037A000F77319401143018370470A460021018BCA
:1037B0004FF2FF7319404FF6FF7303EA02231943D8
:1037C000018370470A460021818B4FF6F773194039
:1037D0001143818370470A460021818B4FF2FF73AA
:1037E00019404FF6FF7303EA0223194381837047A0
:1037F0000A460021018B4FF6FB73194011430183E8
:1038000070470A460021018B4FF6FF3319404FF6EF
:10381000FF7303EA02231943018370470A4600211C
:10382000818B4FF6FB7319401143818370470A4621
:103830000021818B4FF6FF3319404FF6FF7303EAE7
:1038400002231943818370470A460021018B4FF6FA
:103850007F7319401143018370470A460021018B91
:10386000C1F30E014FF6FF7303EA022319430183EC
:1038700070470A460021818B4FF67F731940114330
:10388000818370470A460021818BC1F30E014FF6F8
:10389000FF7303EA02231943818370470A4600211C
:1038A000018C4FF6FD7319401143018470470A469D
:1038B0000021018C4FF6F7731940114301847047C2
:1038C0000A460021018C4FF6DF7319404FF6FF7353
:1038D00003EA02131943018470470A460021018C50
:1038E0004FF67F7319404FF6FF7303EA0213194333
:1038F000018470470A460021018C4FF6FF5319409E
:103900004FF6FF7303EA02231943018470470A4606
:103910000021018C4FF2FF7319404FF6FF7303EA49
:1039200002231943018470470A460021018C4DF699
:10393000FF7319404FF6FF7303EA02331943018402
:10394000704730B5002301248C40A3B2048C9C4303
:103950000484048C02FA01F5ADB22C43048430BD1A
:1039600030B5002304248C40A3B2048C9C4304840F
:10397000048C02FA01F5ADB22C43048430BD70B55D
:103980000346002000241846183001258D40ACB2B3
:103990001D8CA5431D8409B1082909D100EB6100E4
:1039A000056825F0700505600568154305600EE0A3
:1039B0000D1FC5F34E052844056825F4E045056054
:1039C00005684FF6FF7606EA02263543056070BDAE
:1039D00021B1028842F00202028004E002884FF620
:1039E000FD731A400280704721B1028842F0040240
:1039F000028004E002884FF6FB731A400280704791
:103A000021B1828842F08002828004E082884FF6F1
:103A10007F731A408280704702884FF6F7731A400E
:103A2000028002880A430280704782884FF68F73B3
:103A30001A40828082880A438280704702894FF64A
:103A4000F8731A40028102890A4302817047028991
:103A50004FF67F731A40028102890A430281704740
:103A600081847047818570478186704701877047E0
:103A700081877047A0F84010704702884FF6FF43D7
:103A80001A40028002880A43028070470146888EED
:103A900070470146088F70470146888F704701467E
:103AA000B1F8400070470146888C70470146088D88
:103AB000704702460020138A0B400BB1012000E042
:103AC00000207047CA430282704730B5024600208A
:103AD00000230024158A05EA0103958905EA0104FB
:103AE00013B10CB1012000E0002030BDCA430282B6
:103AF0007047014601EBC1024FF0E0235A610122F9
:103B00001A6100229A6100BF4FF0E022106900F0B4
:103B100001021AB100F48032002AF5D000224FF0E1
:103B2000E0231A619A617047014642F228324A4303
:103B30004FF0E0235A6101221A6100229A6100BF0E
:103B40004FF0E022106900F001021AB100F4803257
:103B5000002AF5D000224FF0E0231A619A617047E5
:103B600008B501210C20FEF7A9FB0320ADF80000E9
:103B700010208DF8030003208DF8020069469B4851
:103B8000FEF7E0F801219948FEF789F902219748EC
:103B9000FEF785F908BD70B5054600241AE005FA60
:103BA00004F000F0800020B101219048FEF777F981
:103BB00003E001218D48FEF774F902218B48FEF7DE
:103BC00070F90520FFF795FF02218848FEF767F995
:103BD000601CC4B2082CE2DB70BD10B504460520A1
:103BE000FFF7A2FFF820FFF7D6FF0520FFF79CFFA5
:103BF00004F0F000FFF7CFFF0520FFF795FF210746
:103C0000080EFFF7C8FF10BD10B50446FA20FFF7F5
:103C1000C2FF04F0F000FFF7BEFF2107080EFFF718
:103C2000BAFF10BD10B53220FFF77EFF3020FFF73E
:103C3000D4FF0120FFF778FF0220FFF7CEFF01201D
:103C4000FFF772FF0C20FFF7C8FF0120FFF76CFFA2
:103C50000120FFF7C2FF1E20FFF766FF0620FFF7D7
:103C6000BCFF10BD2DE9F04105460E4617464FF04A
:103C700000085F4901EBC501885DFFF7AEFF71E009
:103C800017F8010BFFF7C0FF08F1010000F0FF0873
:103C9000022101FB0680C11700EB11710911A0EB95
:103CA000011100295ED1022101FB0680C11700EB42
:103CB0001171C1F307149DB9012C02D19020FFF7B7
:103CC0008CFF022C02D18820FFF787FF032C02D142
:103CD0009820FFF782FF042C02D18020FFF77DFFA0
:103CE000012D13D1012C02D18820FFF776FF022C81
:103CF00002D19820FFF771FF032C02D18020FFF73B
:103D00006CFF042C02D19020FFF767FF022D13D126
:103D1000012C02D19820FFF760FF022C02D18020F5
:103D2000FFF75BFF032C02D19020FFF756FF042C16
:103D300002D18820FFF751FF032D13D1012C02D1AE
:103D40008020FFF74AFF022C02D19020FFF745FFA9
:103D5000032C02D18820FFF740FF042C02D19820C9
:103D6000FFF73BFF387800288AD1BDE8F0812DE9C4
:103D7000F04704464FF08008C1463420FFF72DFF7E
:103D80003620FFF72AFF3E20FFF727FF00271BE022
:103D9000002513E009EB0501C8B2FFF71EFF4046FE
:103DA000FFF71BFF002605E014F8010BFFF72CFFBF
:103DB000701CC6B2102EF7DB681CC5B2202DE9DBE3
:103DC0004FF08808781CC7B2022FE1DB3620FFF7DE
:103DD00004FF3020FFF701FFBDE8F08710B5012098
:103DE000FFF7FBFE0220FFF79FFE10BD000C014015
:103DF000E006002008B501211020FEF75FFA48F226
:103E00001070ADF8000010208DF8030003208DF82D
:103E1000020069460F48FDF795FF4FF40040ADF8EA
:103E2000000010208DF8030003208DF80200694681
:103E30000948FDF787FF4FF44050ADF8000010200F
:103E40008DF8030003208DF8020069460348FDF752
:103E500079FF08BD0008014000100140000C01403E
:103E600000B587B0012140F20520FEF727FA4FF494
:103E70000040FEF787F92648FEF784FA0F20ADF8D8
:103E8000180000208DF81B0003208DF81A0006A9E9
:103E90002048FDF757FF002001908DF808008DF8AD
:103EA00009004FF4602003900020049001208DF859
:103EB000140001A91648FEF78CFA01211448FEF7F8
:103EC000B4FA1348FEF7D3FA00BF1148FEF7D4FA4C
:103ED0000028FAD10E48FEF7D9FA00BF0C48FEF7C9
:103EE000DAFA0028FAD107B000BD10B5002401218C
:103EF0000748FEF7DAFA00BF02210548FEF746FC44
:103F00000028F9D00248FEF763FB0446204610BDA6
:103F100000240140000801401FB501210846FEF7BA
:103F2000CDF901210820FEF7C9F943F6E070ADF89C
:103F30000C0048208DF80F0003208DF80E0003A917
:103F40004D48FDF7FFFE00208DF808000C208DF88D
:103F5000090001208DF80A000521FEF709F820204C
:103F6000019001A8FEF744FC06210120FEF700F8AD
:103F70004020019001A8FEF73BFC07210120FDF73E
:103F8000F7FF8020019001A8FEF732FC08210120F4
:103F9000FDF7EEFF4FF48070019001A8FEF728FCBA
:103FA00009210120FDF7E4FF4FF40070019001A802
:103FB000FEF71EFC0A210120FDF7DAFF4FF48060B6
:103FC000019001A8FEF714FC0B210120FDF7D0FFA2
:103FD0004FF40060019001A8FEF70AFC0C210120BB
:103FE000FDF7C6FF4FF48050019001A8FEF700FCDA
:103FF0000D210120FDF7BCFF4FF40050019001A8F6
:10400000FEF7F6FB0E210120FDF7B2FF4FF48040D2
:10401000019001A8FEF7ECFB0F210120FDF7A8FF9E
:104020004FF40040019001A8FEF7E2FB4FF4C0609E
:10403000FEF75EFC17208DF8000001208DF80100CE
:1040400002208DF8020001208DF803006846FEF77B
:1040500054FC4FF4C060FEF74BFC28208DF80000A4
:1040600000208DF8010001208DF802008DF803007A
:104070006846FEF742FC1FBD000C014070B50446C7
:10408000002600F0E6F8A02000F086F900F059F9CB
:10409000201200F081F900F054F92546E11704EBF5
:1040A00011610912A4EB0121C8B200F075F900F00A
:1040B00048F900F0CEF8A12000F06EF900F041F9C7
:1040C000002000F09BF9064600F01DF900F0DFF833
:1040D000304670BD70B50446002500F0BAF8A02047
:1040E00000F05AF900F02DF9201200F055F900F017
:1040F00028F92646E11704EB11610912A4EB01210E
:10410000C8B200F049F900F01CF900F0A2F8A120B3
:1041100000F042F900F015F9012000F06FF90546B2
:104120004FF6FF7000EA0525002000F067F905430F
:1041300000F0ADF8284670BD70B504460E4600F09C
:1041400088F8A02000F028F900F0FBF8201200F019
:1041500023F900F0F6F82546E11704EB1161091286
:10416000A4EB0121C8B200F017F900F0EAF83046DC
:1041700000F012F900F0E5F800F089F80A20FFF7E6
:10418000D3FC70BD70B504460D4600F062F8A02067
:1041900000F002F900F0D5F8201200F0FDF800F070
:1041A000D0F82646E11704EB11610912A4EB0121B6
:1041B000C8B200F0F1F800F0C4F8281200F0ECF8F2
:1041C00000F0BFF8E8B200F0E7F800F0BAF800F04D
:1041D0005EF80A20FFF7A8FC70BD000008B50121B9
:1041E0001020FEF76BF84FF4C040ADF8000003203C
:1041F0008DF8020010208DF8030069469648FDF7FF
:10420000A1FD4FF400519448FDF749FE4FF4804161
:104210009148FDF744FE08BD08B54FF48040ADF865
:10422000000003208DF8020010208DF8030069467D
:104230008948FDF787FD08BD08B54FF48040ADF80B
:10424000000048208DF8030069468348FDF77AFD99
:1042500008BD10B5FFF7E0FF4FF480417E48FDF741
:104260001EFE4FF400517C48FDF719FE0520FFF7B4
:1042700040FC4FF480417848FDF713FE0620FFF71D
:1042800038FC4FF400517448FDF70BFE10BD10B51B
:10429000FFF7C2FF4FF400516F48FDF702FE4FF4E5
:1042A00080416D48FDF7FDFD4FF400516A48FDF770
:1042B000F6FD0620FFF71DFC4FF480416648FDF730
:1042C000EEFD0620FFF715FC10BD10B54FF40051B0
:1042D0006148FDF7E6FDFFF79FFF4FF480415E4820
:1042E000FDF7DFFD0220FFF704FC4FF400515A48B0
:1042F000FDF7D5FD0520FFF7FCFB4FF400515648B4
:10430000FDF7CFFD10BD10B54FF400515248FDF739
:10431000C8FDFFF781FF4FF480414F48FDF7BFFD17
:104320000220FFF7E6FB4FF400514B48FDF7B7FDC5
:104330000520FFF7DEFB4FF400514748FDF7B1FDC4
:1043400010BD10B50024FFF777FF4FF480414248BD
:10435000FDF7A5FD0120FFF7CCFB4FF400513E48CF
:10436000FDF79DFD0120FFF7C4FB07E0601CC4B210
:10437000FA2C03DDFFF78BFF012010BD4FF48041C5
:104380003548FDF772FD0028F0D14FF40051324856
:10439000FDF787FD0020F0E770B504460025FFF724
:1043A0003BFF4FF400512C48FDF77BFD00BF22E09E
:1043B00004F08000002805DD4FF480412648FDF719
:1043C0006EFD04E04FF480412348FDF76AFD60066E
:1043D000040E4FF400512048FDF761FD0220FFF765
:1043E00088FB4FF400511C48FDF75BFD0220FFF7EE
:1043F00080FB681CC5B2082DDADB70BD70B50546C0
:1044000000260024FFF718FF00BF1BE04FF4005107
:104410001148FDF746FD0220FFF76BFB4FF40051FA
:104420000D48FDF73CFD6006040E4FF480410A483C
:10443000FDF71BFD08B1601CC4B20120FFF759FB5A
:10444000701CC6B2082EE1DB15B9FFF75CFF01E076
:10445000FFF73BFF204670BD0010014000B587B05C
:10446000012141F20400FDF729FFE020ADF818001A
:1044700018208DF81B0003208DF81A0006A9324879
:10448000FDF760FCE0213048FDF709FD0020ADF8A4
:1044900004004FF48270ADF806000020ADF808006B
:1044A000ADF80A00ADF80C004FF40070ADF80E0046
:1044B0001820ADF810000020ADF812000720ADF86C
:1044C000140001A92148FEF7A7FA01211F48FEF7B1
:1044D00048FB07B000BD70B5054605E0601CC4B2DE
:1044E000C82C01DB002070BD02211848FEF7BDFB7F
:1044F0000028F3D029461548FEF764FB002405E0A8
:10450000601CC4B2C82C01DB0020ECE701210F487D
:10451000FEF7ABFB0028F3D00C48FEF755FBC0B20A
:10452000E1E710B50446094800884FF6C771084016
:104530000649088008460088204308800121034876
:10454000FEF70FFB10BD00000008014000300140E5
:1045500008B501210C20FDF7B1FE4FF4C050ADF8B5
:10456000000010208DF8030003208DF8020069463A
:10457000B048FDF7E7FB4FF4C051AE48FDF791FCA2
:104580000820ADF8000028208DF803006946AA48ED
:10459000FDF7D8FBFFF762FF4FF40061A548FDF778
:1045A00080FC4FF48051A348FDF779FC08BD2DE94C
:1045B000F04107460D4616464FF480519D48FDF7E1
:1045C00070FC3846FFF787FF00F0FF08002405E085
:1045D000FF20FFF780FF2855601CC4B2B442F7DB10
:1045E0004FF480519348FDF75AFC4046BDE8F081F6
:1045F0002DE9F04107460C4615464FF480518D4891
:10460000FDF74FFC3846FFF766FF00F0FF08002675
:1046100005E014F8010BFFF75EFF701CC6B2AE4256
:10462000F7DB4FF480518348FDF739FC4046BDE885
:10463000F0811CB581A103C9CDE900010820FFF775
:1046400070FF4FF480517B48FDF72BFC0522694633
:104650003020FFF7CDFF052269461020FFF7A7FFA6
:104660004FF480517348FDF71AFC002406E01DF852
:104670000400A52800D003E0601CC4B2052CF6DBC2
:1046800000BF052C01D001201CBD0020FCE770B547
:1046900005460C464FF480516648FDF702FC28465B
:1046A000FFF719FFC6B22046FFF715FF4FF4805100
:1046B0006048FDF7F4FB304670BD70B504464FF41A
:1046C00080515C48FDF7EDFB2046FFF704FFFF201B
:1046D000FFF701FFC5B24FF480515648FDF7DFFBED
:1046E000284670BD70B505460820FFF71AFF4FF445
:1046F00000615048FDF7D5FB08222946A020FFF7AE
:1047000077FF4FF400614B48FDF7C9FB00BF08215C
:104710004948FDF7AAFB0028F9D10720FFF7CDFF94
:10472000044621462720FFF7B2FF04F0100028B10D
:10473000FF21E120FFF7ABFF102070BD04F0200047
:1047400008B12020F9E7FF20F7E770B504461020F4
:10475000FFF7E7FE0720FFF7B0FF054629462720B1
:10476000FFF795FF05F0400050B108222146612077
:10477000FFF71DFFFF21E220FFF789FF002070BD3A
:104780000120FCE710B54FF400612A48FDF789FBD2
:1047900005222C492A20FFF72BFF01212120FFF7BA
:1047A00076FF01212220FFF772FF28212520FFF745
:1047B0006EFF08213120FFF76AFF0F212620FFF747
:1047C00066FF0F212020FFF762FF4FF400611948B8
:1047D000FDF765FB10BD10B54FF400611548FDF7FE
:1047E00060FB052218493020FFF702FF052215491A
:1047F0002A20FFF7FDFE01212120FFF748FF0121BC
:104800002220FFF744FF1A212420FFF740FF282130
:104810002520FFF73CFF0F212620FFF738FF0E2150
:104820002020FFF734FF4FF400610248FDF737FB0B
:1048300010BD000000080140000C0140A5A5A5A581
:10484000A5000000BA500008B550000800B589B0B6
:1048500001210820FDF732FD01210220FDF73BFD7B
:1048600001210846FDF72AFD1020ADF820000320A5
:104870008DF8220018208DF8230008A91748FDF7AD
:1048800061FA42F22830ADF818004FF44870ADF8E4
:1048900014000020ADF81A00ADF8160005A9104864
:1048A000FEF7EEFA01210F48FDF71DFB6020ADF881
:1048B00004000120ADF806000220ADF80C0001A9AB
:1048C0000748FEF71AFB08210548FEF765FF01219E
:1048D0000348FEF731FE09B000BD0000000C0140A6
:1048E0000004004000081A001FB501210220FDF756
:1048F000F2FC01211748FFF7F9F84FF4FA60ADF820
:10490000080048F69F40ADF804000020ADF80A000A
:10491000ADF8060001A90F48FEF7B2FA01210D48D3
:10492000FEF70AFE012211460A48FEF720FE4FF468
:10493000C060FDF7DDFF1D208DF8000000208DF820
:10494000010001208DF802008DF803006846FDF794
:10495000D4FF1FBD000400404FF0000200B5134615
:1049600094469646203922BFA0E80C50A0E80C508F
:10497000B1F12001BFF4F7AF090728BFA0E80C5040
:1049800048BF0CC05DF804EB890028BF40F8042B39
:1049900008BF704748BF20F8022B11F0804F18BFA6
:1049A00000F8012B7047704770477047754600F05C
:1049B0002BF8AE4605006946534620F007008546B1
:1049C00018B020B5FDF74CF9BDE820404FF00006C7
:1049D0004FF000074FF000084FF0000B21F00701E7
:1049E000AC46ACE8C009ACE8C009ACE8C009ACE82A
:1049F000C0098D46704710B50446AFF300802046CD
:104A0000BDE81040FBF7FBBB0048704738070020AB
:104A100001491820ABBEFEE72600020070470000E7
:104A200021F00042A2F16052B2F5801F01F0004374
:104A300028BFD2F17F6C0BD95FEA001C43EAC202A7
:104A400042EB507018BF704728BF20F0010070473C
:104A5000B2F5801FBCBF184670474FEA410C1CF5E9
:104A6000001F02D2084600F016BB70B500F070F9C6
:104A700000000089FFF7F6BF4FF00040A0F580006E
:104A80007047000010B591EA030F48BF83F0004360
:104A900000F1BA81841A71EB030C05D2121943EBB1
:104AA0000C03001B61EB0C01DFF824E14FEA115409
:104AB000A4EB135C1EEA430F18BF9EEA445F73D059
:104AC00023EA0E03DCF1200E21EA045143F48013A3
:104AD00032D322FA0CFE10EB0E0023FA0CFE41EB4F
:104AE0000E01CCF1200E03FA0EFE10EB0E0051F178
:104AF0000001B1F5801FCCF1200E32D201EB045140
:104B000012FA0EF2BDE8104058BF7047401C38BF83
:104B10005FEA420218BF7047002814BF20F001006E
:104B200041F100014FEA410313F5001F38BF704700
:104B3000A1F1C04100F05AB9012A43EB0302ACF1E4
:104B4000200CDCF11F0E32BF4FF0000E23FA0CF3E5
:104B500010EB030041EB0451B4EB115FD0D0A1EB9B
:104B6000045101F5801149085FEA300001EB04515E
:104B70000ED350F1000038BF12FA0EFE08D1BDE886
:104B80001040C9E7401C38BF5FEA4202CAD1C3E700
:104B9000BDE810404FEA410313F5001F38BF7047CE
:104BA000A1F1C04100F022B99EEA445F08D011EAA9
:104BB0005E0FBDE8104004BF01F0004100207047C7
:104BC000BDE8104070B500F0C3F800BF64FBBE3E06
:104BD0000000E0FFB0FA80F310FA03F10AD0C3F14D
:104BE0001D0303F580634FEA41504FEA035202EB85
:104BF000D12170474FF0000070470000DFF848C136
:104C000070B51CEA111E1EBF1CEA13159EEA0C0F9C
:104C100095EA0C0F00F06F8081EA030423EA4C133D
:104C20004EEAD47E21EA4C1141F4801143F4801302
:104C3000AE44A1FB024CA0FB0365AEF17F7E3619AA
:104C400055EB0C05A1FB034C4CF10003A0FB021C2F
:104C500016EB0C06654153F10003094218BF46F0FC
:104C6000010613F4007F0BD14FEA03314FEA053000
:104C7000340341EA155140EA16506FF003020AE08E
:104C80004FEAC3214FEAC520F40241EA555140EAF8
:104C900056506FF0020202EB2E4201EB025585EAFC
:104CA000CE710AD05FEA440C18BF24F0004450F1E2
:104CB000000041F1000120EAD47040F2FE7C624520
:104CC00000D270BDA84214BF4FF080444FF0404462
:104CD000002E08BF0024BEF1806FA8BFA1F1C04123
:104CE000BDE8704080F282804FF0000001F1C041C9
:104CF00001F0004170479EEA0C0F0CEA131518BF33
:104D000095EA0C0F06D04FF0000081EA030E0EF07A
:104D1000004170BD00F01CF88900013E00F007B8AA
:104D200000F009B84FEA430C5FEA5C5C08D081EA06
:104D3000030100F05BB84FEA410C5FEA5C5CF6D11E
:104D40004FF00000014970470000FF070000F87FA6
:104D50000EF1020E2EF0030E5EF8046B364205D4FF
:104D6000012A43EB030515F5001F12D8012841EB7A
:104D7000010C1CF5001F0CD80ED14FEAD17C15F5A3
:104D8000001F0CEB4C0C0CF1020C08BF4CEBD37C5D
:104D900004E04FF0080C01E04FEAD37C0CEB4C052B
:104DA00026FA05F606F00706B6F1040C06D20EEB5D
:104DB000860CBDE870404CF0010C6047DFE80CF059
:104DC000090B02024FF000414FF00000A1F5002155
:104DD00070BD19461046012851EB010418BFD4F5E7
:104DE000001484BF002001F0004170BD0808A0F548
:104DF00000114FEA3101704710B591EA030F48BF27
:104E000083F000433FF546AE841A71EB030C07D2E2
:104E100012198CF0004C43EB0C03001B61EB0C01EE
:104E2000DFF8A4E14FEA1154A4EB135C1EEA430F30
:104E300018BF9EEA445F00F0B08023EA6E0352423E
:104E400021EA0451C3EB6E0338BF5B1EDCF1200E78
:104E500025D322FA0CFE10EB0E0043FA0CFE41EBB8
:104E60000E01CCF1200E03FA0EFE10EB0E0051F1F4
:104E70000001CCF1200E29D412FA0EF201EB0451FC
:104E8000BDE8104058BF7047401C1CBFB2F1004F36
:104E9000704700280CBF491C20F00100704712EB3E
:104EA000020E43EB030218BF4FF0010E4EEA42021E
:104EB000ACF1200CDCF11E0E54D943FA0CFE10EBC1
:104EC0000E0051F1FF31CCF11E0ED5D50EF1010EC1
:104ED00012FA0EFE404141EB010101EB445C5FEA36
:104EE0005C5C10D910EBDE7001EB045138BFBEF1F1
:104EF000004FBDE8104018BF704700280CBF491C88
:104F000020F00100704730D24FEAD42C11F5001187
:104F100024F400641BD0B1FA81F20B3AA41AA41E47
:104F2000D2F12003914030FA03F31943904001EB92
:104F3000CC71002C01EB0451BDE81040A8BF7047B4
:104F400001F1C0414FF0000001F000417047B0FA9C
:104F500080F310FA03F100D110BDE41A173C4805A4
:104F6000C90AE4E701EB045110BD491001EB0451FB
:104F7000BDE810404FEA300002E04FF000017047FA
:104F80004A0008BF0042F8D0B2F5001F28BF7047A2
:104F900001F000414FF0000070479EEA445F07D0E7
:104FA00011EA5E0FBDE8104004BF002100207047E9
:104FB000BDE8104070B5FFF7CBFE00BF40DFF63E06
:104FC00083F00041104670470000E0FFC10DD1F1B1
:104FD0009E0206DB4FEA002343F0004323FA02F06F
:104FE0007047004207D54FEA4001B1F1FE4F02D2AF
:104FF0004FF00000704710B500F007F84992248088
:10500000002070476FEA200070470EF1020E2EF06C
:10501000030E5EF8044B244204D44FEA4102B2F17D
:105020007F4F11D84FEA4003B3F17F4F0CD80ED118
:105030004FEAD07CB2F17F4F0CEB4C0C0CF1020C20
:1050400008BF4CEBD17C04E04FF0080C01E04FEAC4
:10505000D17C0CEB4C0324FA03F404F00704B4F104
:10506000040C06D20EEB840CBDE810404CF0010C91
:105070006047DFE80CF0070802024FF00040A0F59F
:10508000800010BD0846420018BFD2F1807288BF70
:1050900000F0004010BDFF2141EAD050C00570472C
:1050A0003030300030303030000000003000000080
:1050B0003030303000344310100134431010010000
:1050C000E050000800000020000700006C0100080C
:1050D000605400080007002098060000C80100087E
:1050E00001FF013130083FFFFFFFF00F803EF87FE6
:1050F000FFFFFE107AF8102BFF80108AFC102AC0E8
:10510000108AFE102AE0108AFF10DAF0103AF864D4
:105110004910314303FC7A1F1011E9104A7E3022F6
:10512000C04A011049501AE03B39104A3E105BFF5B
:10513000FC5B3910DAFE10EAFC202A07108AF040E6
:105140002A03101954191039702A01101974598042
:105150006A1F8E09101039B07A3F103B03FC50498A
:105160001039F00912108AFE103AF0A089102AE0D6
:1051700010294C59102A8010299A4910293A01FF08
:10518000013F10838A0F820F7A0F710F680F5E0F35
:10519000540F4A0F3E0F320F260F190F0B0FFC0E44
:1051A000ED0EDD0ECD0EBC0EA90E970E830E6E0E0B
:1051B000590E430E2C0E140EFB0DE10DC70DAB0D59
:1051C0008F0D710D530D340D140DF30CD10CAE0C6D
:1051D0008B0C670C410C1B0CF50BCD0BA50B7C0B42
:1051E000530B290BFE0AD30AA70A7B0A4F0A220A8D
:1051F000F509C8099A096D093F091109E308B508BD
:1052000087085A082D08103608D307A6077A074ED4
:10521000072307F806CD06A3067A065106290601DC
:1052200006DA05B4058E05690545052105FE04DC91
:1052300004BA049A047A045A043C041E041062045A
:10524000E403C803AD03930379036003470330030A
:1052500019030203EC02D702C202AE029A028702CD
:105260007502630251024102300220021102020261
:10527000F301E501D801CA01BE01B101A5019901FF
:105280008E01820178016D0163015A0150014701CD
:105290003E0135012D0125011D0115010E010601FB
:1052A0001301F912F212EC12E612E012DA12D41221
:1052B000CF12C912C412BF12BA12B612B112AC1276
:1052C000A812A412A0129C129812941291128D127C
:1052D0008A128612831280127D127A127712741249
:1052E00072126F126C126A126712651263126110E9
:1052F0004D340F280F1C0F100F040FF80EEC0EE0AA
:105300000ED00EC00EB40EA40E900E800E700E5C69
:105310000E480E340E200E0C0EF80DE00DC80DB424
:105320000D9C0D800D680D4C0D340D180DFC0CDC22
:105330000CC00CA00C840C640C440C240C10440C09
:10534000E00BBC0B9C0B780B540B300B0C0BE80ADE
:10535000C00A9C0A740A500A280A040ADC09B40923
:105360009009680940091809F008CC08A4087C08CD
:10537000540830080808E007BC07940770074C077A
:105380002407103207DC06B8069406740650062C73
:10539000060C06EC05C805A80588056C054C052C0F
:1053A000051005F004D404B8049C04800468044C7F
:1053B0000434041C04101804E803D003BC03A00345
:1053C0008C037803640350033C0328031403F05652
:1053D00003EC02DC02CC02B802A802980288027830
:1053E0000268025C024C02400230022402180208E9
:1053F00002FC01F001E401D801D001C401B801B000
:1054000001A4019C0190018801800174016C01E8F4
:105410000AC20C030D290D440D600D8F0DF40D1102
:105420000E6E0E440F84A24A0468090102030406AA
:105430000708090C69100025000204060880818213
:105440008384858687909192939495969788898A8C
:105450008B8C8D8E8F98999A9B9C9D9E9F000000AF
:0400000508001C458E
:00000001FF
